S01200004C616230365F325F30362E7372656347
S113000090240020190100001501000015010000D2
S113001000000000000000000000000000000000DC
S113002000000000000000000000000015010000B6
S11300300000000000000000150100001501000090
S11300401501000015010000150100001501000054
S11300501501000015010000150100001501000044
S11300601501000015010000150100001501000034
S11300701501000015010000150100001501000024
S11300801501000015010000150100001501000014
S11300901501000000000000000000001501000030
S11300A015010000150100001501000015010000F4
S11300B00000000010B5064C2378002B07D1054B37
S11300C0002B02D0044800E000BF0123237010BDC0
S11300D03404002000000000FC080000084B10B5A8
S11300E0002B03D00749084800E000BF0748036815
S11300F0002B00D110BD064B002BFBD09847F9E72D
S11301000000000038040020FC080000FC08000087
S113011000000000FEE70000F8B5234A234B9A4292
S113012009D0224B204A03E01168196004330432D9
S11301301F498B42F8D31F4B02E000221A6004339C
S11301401D4A9342F9D31D4AFF211D4B8B439360F3
S1130150FD3990235B001B4AD1501B4AD3780325F9
S1130160AB4302242343D370D3780C27BB43082624
S11301703343D370154B987B302290432022104395
S11301809873997BB943314399739A7BAA43224369
S11301909A730F4A516880230B4353600D4B984761
S11301A00D4B9847FEE7C046FC0800000000002005
S11301B034040020340400208C04002000ED00E00E
S11301C00000000000700041005000410048004160
S11301D000400041050700000D040000014A024BE5
S11301E01A60704740420F0000000020234A116A41
S11301F0234B0B401362234B072256215A540131DF
S11302005A541C395A5C02200243D2B25A545A5CE2
S113021020200243D2B25A541B4A136A1B390B439F
S113022013621A4B1A4A5A8059681A4A0A435A6086
S113023080225200184B5A60174BDB69002BFBD10C
S11302401549CA68FF339A43DD3B1343CB60124B15
S1130250DB69002BFBD1114A0F4B1A600E4BDB6993
S1130260002BFBD10C4A538B10210B439BB25383BD
S1130270094BDB69002BFBD17047C04600080040E6
S1130280FFFCFFFF0044004100040040000C00405C
S11302901744000004060100001400421600300058
S11302A02823034AD054024B1B7EDB07FBD570473F
S11302B000140042034A5168C0239B020B4353605D
S11302C07047C0460014004270B516001D0040007F
S11302D0094B5862084B1B7EDB07FBD50800074B14
S11302E09847002403E0305D044B98470134AC4246
S11302F0F9DB034B984770BD00140042A1020000D3
S1130300B502000030B54000184C6062174C247EE2
S1130310E407FBD52824154D29551449097EC9073E
S1130320FBD5124D6C6812490C40802149022143CF
S113033069600121084368620C49097E8907FBD57D
S1130340002008E02821094C615C11540749097E0A
S11303508907FBD50130591E8842F3DB034A5168F3
S1130360C0239B020B43536030BDC04600140042BF
S1130370FFFFFCFF10B51B4B98471B4A116A1B4B30
S11303800B4013621A4B19688022D2000A431A6088
S11303904B22995C0120014399544A215A5C02433F
S11303A05A5415395A5C02200243D2B25A545A5C48
S11303B020200243D2B25A540E4A136A31390B43F5
S11303C013620D4A0D4B5A800D4B0E4A1A60C0221F
S11303D092025A600C4A9A811A6802390A431A60D6
S11303E010BDC046DD01000000080040FFFCFFFF17
S11303F0004400410004004014400000000C004090
S1130400000800420400314015FBFFFFF0B587B03F
S11304101C4B98471C4B984704AA00231370403385
S113042053702E3B9370103BD37014331371113BF4
S113043053711E3393711C3B00216820134CA04759
S11304401348144B984704AC07232200002168206A
S1130450114DA84723799C466279A379A6786778D9
S113046025781F2002403F21644621407F242540F7
S113047002953C400194304000900848054CA04748
S1130480E1E7C04675030000ED010000C902000069
S1130490A40800005505000005030000B40800008E
S11304A0034B1B7EDB07FBD580B2014B18857047DD
S11304B00008004210B504000A2803D02000034BB2
S11304C0984710BD0D20014B9847F7E7A1040000A1
S11304D0024A1368591C11601870704750040020B8
S11304E010B50300092807D9084A1279002A01D156
S11304F0572002E0372000E03020C018C0B2044B7F
S113050098470122014B5A7110BDC0465004002087
S1130510D104000010B50D4A93681B041B0C9360B2
S1130520002204E01B1A09498B600132D2B2074B46
S11305309B688342F6D2054B5B79002B01D1002ADC
S113054002D01000024B984710BDC0465004002052
S1130550E10400000FB4F0B5C64600B582B008ABA4
S113056010CB0193B0E002342978302919D000254A
S11305700B00303BDBB2092B29D900265B4B1A0058
S11305800C321A6000225A71632969D021D82529B6
S113059074D0582924D0002900D1A0E0534F0C373F
S11305A050E0AC1C69780125E2E7B200D2B2B2187F
S11305B0D3B25B00DBB2CB18DBB2303BDEB22178C6
S11305C001340B00303BDBB2092BEED9D6E7002611
S11305D0F7E773294DD01CD975291CD07829DDD1B2
S11305E058394B424B41414F3B71019B1A1D0192BB
S11305F01B68BB60802040013D4B98469847802093
S11306004000C0471020C047387A3A4B98470C370F
S113061018E06429C2D1019B1A1D01921B68334A58
S11306209360642914D03448314FB847FA208000CD
S1130630B8476420B8470A20B8472C4F387A2D4B66
S113064098470C37294B002219680A701F601DE077
S1130650002BE8DA5B4293602D20284B9847E2E7B1
S1130660019B1A1D01921878244B98471F4F0C3791
S1130670E8E7019B1A1D01921F68E3E725201F4B41
S113068098471A4F0C37DDE7013EF6B2174A136854
S1130690591C11601B78002B06D0002EF4D103E006
S11306A02020174B98474646731EDBB29846002E0F
S11306B006D0002DF4D03020F3E7114B98472F00DB
S11306C07D1C38780028F8D1651C2078002806D0D5
S11306D0252800D147E70A4B98472C00F4E702B0DD
S11306E004BC9046F0BC08BC04B018475004002079
S11306F015050000E104000010270000D1040000EB
S1130700B504000070B50D4E0D4D0024AD1BAD10A9
S113071005D0A300F35801349847A542F9D100F05D
S1130720DBF8084E084D0024AD1BAD1005D0A30026
S1130730F35801349847A542F9D170BDE40800008C
S1130740E4080000E4080000EC080000034B10B5C6
S1130750002B02D0024800F005F810BD0000000094
S11307607507000010B5010000230022002000F0EE
S11307701FF810BD70B5094B094CE41AA41009D038
S1130780084AA518AD00ED182B68013C9847043DB4
S1130790002CF9D100F0AAF870BDC046F80800009A
S11307A0FC080000FFFFFF3F7047C0467047C0468B
S11307B0F0B54E464546DE465746E0B5364D83B065
S11307C00600286898460F009146FFF7EDFF334B6B
S11307D01C68A4235B00E058002852D043681F2BF8
S11307E013DC5A1C0192002E28D1019A02339B007B
S11307F042601F502868FFF7D9FF002003B03CBCBB
S113080090469946A246AB46F0BD254B002B3DD001
S1130810C820400000E000BF002837D0A4220023F5
S11308205200A15843600160A0504032835004320A
S11308308350013301930023002ED6D09A009246B0
S113084082444A46882154466250C422520091464A
S113085081444A468739994012688B460A43944634
S11308604A4661461160842241465200A150022E3C
S1130870BBD102005C468D32FF3211680C43146018
S1130880B3E720004D30FF30E050A7E72868FFF7BA
S11308908DFF01204042B1E730040020D40800005D
S11308A0000000000A0A0A525443207365740A0ABD
S11308B00A0000000A20253032782F253032782FA4
S11308C02530327820253032783A253032783A256E
S11308D03032780008000020F8B5C046F8BC08BCE7
S11308E09E4670474D070000DD000000F8B5C04685
S10F08F0F8BC08BC9E467047B500000030
S11308FC40420F000000000000000000F402002041
S113090C5C030020C4030020000000000000000071
S113091C00000000000000000000000000000000C7
S113092C00000000000000000000000000000000B7
S113093C00000000000000000000000000000000A7
S113094C0000000000000000000000000000000097
S113095C0000000000000000000000000000000087
S113096C0000000000000000000000000000000077
S113097C0000000000000000000000000000000067
S113098C0000000000000000000000000000000057
S113099C0000000000000000000000000000000047
S11309AC01000000000000000E33CDAB34126DE6E4
S11309BCECDE05000B00000000000000000000004D
S11309CC0000000000000000000000000000000017
S11309DC0000000000000000000000000000000007
S11309EC00000000000000000000000000000000F7
S11309FC00000000000000000000000000000000E7
S1070D2C6804002033
S9030000FC
