:1000000090280020190100001501000015010000D2
:1000100000000000000000000000000000000000E0
:1000200000000000000000000000000015010000BA
:100030000000000000000000150100001501000094
:100040001501000015010000150100001501000058
:100050001501000015010000150100001501000048
:100060001501000015010000150100001501000038
:100070001501000015010000150100001501000028
:100080001501000015010000150100001501000018
:100090001501000000000000000000001501000034
:1000A00015010000150100001501000015010000F8
:1000B0000000000010B5064C2378002B07D1054B3B
:1000C000002B02D0044800E000BF0123237010BDC4
:1000D0003404002000000000800A0000084B10B526
:1000E000002B03D00749084800E000BF0748036819
:1000F000002B00D110BD064B002BFBD09847F9E731
:100100000000000038040020800A0000800A00007F
:1001100000000000FEE70000F8B5234A234B9A4296
:1001200009D0224B204A03E01168196004330432DD
:100130001F498B42F8D31F4B02E000221A600433A0
:100140001D4A9342F9D31D4AFF211D4B8B439360F7
:10015000FD3990235B001B4AD1501B4AD3780325FD
:10016000AB4302242343D370D3780C27BB43082628
:100170003343D370154B987B302290432022104399
:100180009873997BB943314399739A7BAA4322436D
:100190009A730F4A516880230B4353600D4B984765
:1001A0000D4B9847FEE7C046800A00000000002083
:1001B00034040020340400208C08002000ED00E00E
:1001C0000000000000700041005000410048004164
:1001D00000400041B507000071070000014A024BD2
:1001E0001A60704740420F0000000020034B1B7E46
:1001F000DB07FBD580B2014B188570470008004231
:1002000010B504000A2803D02000034B984710BD06
:100210000D20014B9847F7E7ED010000024A1368F3
:10022000591C1160187070475004002010B503006D
:10023000092807D9084A1279002A01D1572002E07B
:10024000372000E03020C018C0B2044B984701228C
:10025000014B5A7110BDC046500400201D02000021
:1002600010B50D4A93681B041B0C9360002204E038
:100270001B1A09498B600132D2B2074B9B6883423B
:10028000F6D2054B5B79002B01D1002A02D0100079
:10029000024B984710BDC046500400202D020000BC
:1002A0000FB4F0B5C64600B582B008AB10CB0193D1
:1002B000B0E002342978302919D000250B00303BFA
:1002C000DBB2092B29D900265B4B1A000C321A60CD
:1002D00000225A71632969D021D8252974D0582960
:1002E00024D0002900D1A0E0534F0C3750E0AC1CC3
:1002F00069780125E2E7B200D2B2B218D3B25B004E
:10030000DBB2CB18DBB2303BDEB2217801340B001C
:10031000303BDBB2092BEED9D6E70026F7E773298D
:100320004DD01CD975291CD07829DDD158394B42C4
:100330004B41414F3B71019B1A1D01921B68BB60F1
:10034000802040013D4B9846984780204000C047A0
:100350001020C047387A3A4B98470C3718E0642988
:10036000C2D1019B1A1D01921B68334A9360642914
:1003700014D03448314FB847FA208000B847642081
:10038000B8470A20B8472C4F387A2D4B98470C377E
:10039000294B002219680A701F601DE0002BE8DA63
:1003A0005B4293602D20284B9847E2E7019B1A1D82
:1003B00001921878244B98471F4F0C37E8E7019BB0
:1003C0001A1D01921F68E3E725201F4B98471A4F1B
:1003D0000C37DDE7013EF6B2174A1368591C11606D
:1003E0001B78002B06D0002EF4D103E02020174B01
:1003F00098474646731EDBB29846002E06D0002D65
:10040000F4D03020F3E7114B98472F007D1C38784B
:100410000028F8D1651C2078002806D0252800D1B6
:1004200047E70A4B98472C00F4E702B004BC90461B
:10043000F0BC08BC04B01847500400206102000062
:100440002D020000102700001D0200000102000024
:10045000154A116A154B0B401362154A116A08239D
:100460000B431362134A144B5A80134B5B78DB091E
:10047000FBD1124A124B11681960516859609F21D3
:10048000197391680F4A91628022D2020E490A6064
:100490000E490A60196802220A431A60084BDB6998
:1004A0009B07FBD47047C04600080040FFFCFFFFDD
:1004B0000004004015400000000C004054090000FA
:1004C000000C00420044004108440041184400412F
:1004D000084B1B7EDB07FBD5064B9862054B1B7E4A
:1004E0005B07FBD5034B986AC0B2024B1B7E9B0790
:1004F000FBD57047000C004210B58022D202054B9C
:100500001A60002403E0FF20034B984701344C2C71
:10051000F9D910BD18440041D1040000F8B5CE4609
:10052000474680B50F009046037899468022D20254
:10053000364B1A600024FF2606E0451C0078344B39
:100540009847060001342800BC42F6D34B46482B9E
:1005500024D006D94B46692B44D0772B52D10024A6
:100560004DE0402B4ED12B482B4B984700240AE0FE
:10057000FF20274B9847010006004346185527489F
:10058000254B98470134022CF2D98022D202244B09
:100590001A6030000CBC90469946F8BD21481E4BAD
:1005A000984700240AE0FF20194B984701000600F5
:1005B000434618551948184B98470134062CF2D970
:1005C000E3E7FF20124B9847010006004346185509
:1005D0001248114B98470134012CF2D9FF200C4BE3
:1005E0009847D2E70024F7E7FF20094B984701001E
:1005F0000600434618550948074B98470134022C1A
:10060000F2D9C2E70848044B9847BEE714440041BA
:10061000D104000090090000A10200008C09000034
:100620001844004198090000A009000070B5214C51
:100630002200062120480C30204B98472378012BBC
:1006400004D01F481F4B9847FFF7F0FF194C2200BA
:10065000062119481430194B98472378012B04D0F0
:10066000052B02D01848174B9847124B1B79AA2B21
:1006700006D0104BDB78012B02D01448114B984761
:10068000012410E00B4D0C4C20001C302A000621E8
:100690000A4EB047200024302A000621B0472C78AB
:1006A0000B48084B9847002CECD10A48054B98475B
:1006B00070BDC04668040020540900001D050000FC
:1006C000B0090000A1020000CC090000E40900000C
:1006D000040A0000140A000010B51B4B98471B4A7F
:1006E000116A1B4B0B4013621A4B19688022D2000F
:1006F0000A431A604B22995C0120014399544A2114
:100700005A5C02435A5415395A5C02200243D2B251
:100710005A545A5C20200243D2B25A540E4A136AE9
:1007200031390B4313620D4A0D4B5A800D4B0E4A63
:100730001A60C02292025A600C4A9A811A680239E1
:100740000A431A6010BDC046DD01000000080040E9
:10075000FFFCFFFF00440041000400401440000083
:10076000000C0040000800420400314015FBFFFF70
:1007700010B5084B9847084B9847084B98470848CE
:10078000084CA047084B98470848A0470848A0478E
:10079000002010BDD906000051040000F90400003B
:1007A000200A0000A10200002D060000380A000007
:1007B000500A000070B50D4E0D4D0024AD1BAD105C
:1007C00005D0A300F35801349847A542F9D100F0B1
:1007D00045F9084E084D0024AD1BAD1005D0A3000F
:1007E000F35801349847A542F9D170BD680A00005A
:1007F000680A0000680A0000700A0000034B10B588
:10080000002B02D0024800F005F810BD00000000E7
:100810002508000010B5010000230022002000F090
:100820001FF810BD70B5094B094CE41AA41009D08B
:10083000084AA518AD00ED182B68013C9847043D07
:10084000002CF9D100F014F970BDC0467C0A0000FC
:10085000800A0000FFFFFF3F7047C0467047C04658
:10086000F0B54E464546DE465746E0B5364D83B0B8
:100870000600286898460F009146FFF7EDFF334BBE
:100880001C68A4235B00E058002852D043681F2B4B
:1008900013DC5A1C0192002E28D1019A02339B00CE
:1008A00042601F502868FFF7D9FF002003B03CBC0E
:1008B00090469946A246AB46F0BD254B002B3DD055
:1008C000C820400000E000BF002837D0A422002349
:1008D0005200A15843600160A0504032835004325E
:1008E0008350013301930023002ED6D09A00924604
:1008F00082444A46882154466250C422520091469E
:1009000081444A468739994012688B460A43944687
:100910004A4661461160842241465200A150022E8F
:10092000BBD102005C468D32FF3211680C4314606B
:10093000B3E720004D30FF30E050A7E72868FFF70D
:100940008DFF01204042B1E730040020580A00002A
:10095000000000000C003000002002000B0001D25B
:10096000400000000095000048000001AA87000038
:10097000770000000065000069400000007700007B
:1009800052000000000100000A0A00002025780043
:100990000A5231203D2000000A5237203D2000003D
:1009A0000A204572726F7220696E20434D44000028
:1009B0000A4572726F7220696E20434D4430202EBA
:1009C0002E2E205265747279696E67000A45727224
:1009D0006F7220696E20434D443820626974203064
:1009E000000000000A4572726F7220696E20566F17
:1009F0006C74616765202626205061747465726E80
:100A0000000000000A43617264206E6F74207265FA
:100A1000616479000A4361726420526561647900FF
:100A20000A537461727420436F6D6D756E696361F2
:100A300074696F6E000000000A53442043617264C1
:100A400020496E697469616C697A65640000000010
:100A50000A446F6E6500000008000020F8B5C0462B
:100A6000F8BC08BC9E467047FD070000DD00000092
:100A7000F8B5C046F8BC08BC9E467047B5000000FB
:100A800040420F000000000000000000F4020020BF
:100A90005C030020C40300200000000000000000F0
:100AA0000000000000000000000000000000000046
:100AB0000000000000000000000000000000000036
:100AC0000000000000000000000000000000000026
:100AD0000000000000000000000000000000000016
:100AE0000000000000000000000000000000000006
:100AF00000000000000000000000000000000000F6
:100B000000000000000000000000000000000000E5
:100B100000000000000000000000000000000000D5
:100B200000000000000000000000000000000000C5
:100B300001000000000000000E33CDAB34126DE662
:100B4000ECDE05000B0000000000000000000000CB
:100B50000000000000000000000000000000000095
:100B60000000000000000000000000000000000085
:100B70000000000000000000000000000000000075
:100B80000000000000000000000000000000000065
:040EB00068080020AE
:00000001FF
