S0140000507261637469636130375F312E73726563F2
S113000090280020190100001501000015010000CE
S113001000000000000000000000000000000000DC
S113002000000000000000000000000015010000B6
S11300300000000000000000150100001501000090
S11300401501000015010000150100001501000054
S11300501501000015010000150100001501000044
S11300601501000015010000150100001501000034
S11300701501000015010000150100001501000024
S11300801501000015010000150100001501000014
S11300901501000000000000000000001501000030
S11300A015010000150100001501000015010000F4
S11300B00000000010B5064C2378002B07D1054B37
S11300C0002B02D0044800E000BF0123237010BDC0
S11300D034040020000000004C090000084B10B557
S11300E0002B03D00749084800E000BF0748036815
S11300F0002B00D110BD064B002BFBD09847F9E72D
S113010000000000380400204C0900004C090000E5
S113011000000000FEE70000F8B5234A234B9A4292
S113012009D0224B204A03E01168196004330432D9
S11301301F498B42F8D31F4B02E000221A6004339C
S11301401D4A9342F9D31D4AFF211D4B8B439360F3
S1130150FD3990235B001B4AD1501B4AD3780325F9
S1130160AB4302242343D370D3780C27BB43082624
S11301703343D370154B987B302290432022104395
S11301809873997BB943314399739A7BAA43224369
S11301909A730F4A516880230B4353600D4B984761
S11301A00D4B9847FEE7C0464C09000000000020B4
S11301B034040020340400208C08002000ED00E00A
S11301C00000000000700041005000410048004160
S11301D000400041FD060000A9060000014A024B50
S11301E01A60704740420F0000000020034B1B7E42
S11301F0DB07FBD580B2014B18857047000800422D
S113020010B504000A2803D02000034B984710BD02
S11302100D20014B9847F7E7ED010000024A1368EF
S1130220591C1160187070475004002010B5030069
S1130230092807D9084A1279002A01D1572002E077
S1130240372000E03020C018C0B2044B9847012288
S1130250014B5A7110BDC046500400201D0200001D
S113026010B50D4A93681B041B0C9360002204E034
S11302701B1A09498B600132D2B2074B9B68834237
S1130280F6D2054B5B79002B01D1002A02D0100075
S1130290024B984710BDC046500400202D020000B8
S11302A00FB4F0B5C64600B582B008AB10CB0193CD
S11302B0B0E002342978302919D000250B00303BF6
S11302C0DBB2092B29D900265B4B1A000C321A60C9
S11302D000225A71632969D021D8252974D058295C
S11302E024D0002900D1A0E0534F0C3750E0AC1CBF
S11302F069780125E2E7B200D2B2B218D3B25B004A
S1130300DBB2CB18DBB2303BDEB2217801340B0018
S1130310303BDBB2092BEED9D6E70026F7E7732989
S11303204DD01CD975291CD07829DDD158394B42C0
S11303304B41414F3B71019B1A1D01921B68BB60ED
S1130340802040013D4B9846984780204000C0479C
S11303501020C047387A3A4B98470C3718E0642984
S1130360C2D1019B1A1D01921B68334A9360642910
S113037014D03448314FB847FA208000B84764207D
S1130380B8470A20B8472C4F387A2D4B98470C377A
S1130390294B002219680A701F601DE0002BE8DA5F
S11303A05B4293602D20284B9847E2E7019B1A1D7E
S11303B001921878244B98471F4F0C37E8E7019BAC
S11303C01A1D01921F68E3E725201F4B98471A4F17
S11303D00C37DDE7013EF6B2174A1368591C116069
S11303E01B78002B06D0002EF4D103E02020174BFD
S11303F098474646731EDBB29846002E06D0002D61
S1130400F4D03020F3E7114B98472F007D1C387847
S11304100028F8D1651C2078002806D0252800D1B2
S113042047E70A4B98472C00F4E702B004BC904617
S1130430F0BC08BC04B0184750040020610200005E
S11304402D020000102700001D0200000102000020
S1130450154A116A154B0B401362154A116A082399
S11304600B431362134A144B5A80134B5B78DB091A
S1130470FBD1124A124B11681960516859609F21CF
S1130480197391680F4A91628022D2020E490A6060
S11304900E490A60196802220A431A60084BDB6994
S11304A09B07FBD47047C04600080040FFFCFFFFD9
S11304B00004004015400000000C00409C080000AF
S11304C0000C00420044004108440041184400412B
S11304D0084B1B7EDB07FBD5064B9862054B1B7E46
S11304E05B07FBD5034B986AC0B2024B1B7E9B078C
S11304F0FBD57047000C004210B58022D202054B98
S11305001A60002403E0FF20034B984701344C2C6D
S1130510F9D910BD18440041D1040000F0B5C64615
S113052000B50F00037898468022D202304B1A603F
S11305300024FF2606E0451C00782E4B9847060051
S113054001342800BC42F6D34346482B21D006D9B7
S11305504346692B3DD0772B45D1002440E0402B06
S113056041D12548254B9847002408E0FF20214B22
S11305709847010006002248204B98470134022C7A
S1130580F4D98022D2021F4B1A60300004BC90467A
S1130590F0BD1D48194B9847002408E0FF20154B77
S11305A09847010006001648144B98470134062C5E
S11305B0F4D9E6E7FF200F4B9847010006001048E6
S11305C00E4B98470134012CF4D9FF20094B98476E
S11305D0D7E70024F7E7FF20064B984706000134CD
S11305E0022CF8D9CDE70948044B9847C9E7C0461F
S11305F014440041D1040000D0080000A10200000E
S1130600D808000018440041DC080000E408000099
S113061010B51B4B98471B4A116A1B4B0B401362C6
S11306201A4B19688022D2000A431A604B22995C43
S11306300120014399544A215A5C02435A54153902
S11306405A5C02200243D2B25A545A5C202002431C
S1130650D2B25A540E4A136A31390B4313620D4A0B
S11306600D4B5A800D4B0E4A1A60C02292025A60FA
S11306700C4A9A811A6802390A431A6010BDC046AE
S1130680DD01000000080040FFFCFFFF00440041C2
S11306900004004014400000000C00400008004228
S11306A00400314015FBFFFF10B50A4B98470A4B75
S11306B098470A4B98470A480A4CA0470A48A0475B
S11306C00A4A06210A480C300A4B98470A48A047B0
S11306D0002010BD1106000051040000F9040000C0
S11306E0F4080000A10200000C09000068040020C6
S11306F09C0800001D0500001C09000070B50D4E8B
S11307000D4D0024AD1BAD1005D0A300F3580134EA
S11307109847A542F9D100F007F9084E084D002486
S1130720AD1BAD1005D0A300F35801349847A54282
S1130730F9D170BD34090000340900003409000007
S11307403C090000034B10B5002B02D0024800F016
S113075005F810BD000000006D07000010B5010091
S113076000230022002000F01FF810BD70B5094BD3
S1130770094CE41AA41009D0084AA518AD00ED18D4
S11307802B68013C9847043D002CF9D100F0D6F8C1
S113079070BDC046480900004C090000FFFFFF3F40
S11307A07047C0467047C046F0B54E464546DE46E3
S11307B05746E0B5364D83B00600286898460F00CA
S11307C09146FFF7EDFF334B1C68A4235B00E05810
S11307D0002852D043681F2B13DC5A1C0192002EB0
S11307E028D1019A02339B0042601F502868FFF70A
S11307F0D9FF002003B03CBC90469946A246AB46C4
S1130800F0BD254B002B3DD0C820400000E000BFC8
S1130810002837D0A42200235200A158436001606D
S1130820A05040328350043283500133019300239B
S1130830002ED6D09A00924682444A4688215446D5
S11308406250C4225200914681444A4687399940F5
S113085012688B460A4394464A46614611608422D4
S113086041465200A150022EBBD102005C468D329B
S1130870FF3211680C431460B3E720004D30FF30A1
S1130880E050A7E72868FFF78DFF01204042B1E759
S11308903004002024090000000000000C00300097
S11308A0002002000B0001D240000000009500006F
S11308B06940000000770000770000000065000038
S11308C0520000000001000048000001AA0F0000CF
S11308D00A5231203D200000202578000A5237209A
S11308E03D2000000A204572726F7220696E204319
S11308F04D4400000A537461727420436F6D6D752A
S11309006E69636174696F6E000000000A53656E5E
S113091064696E6720307830300000000A446F6EDE
S11309206500000008000020F8B5C046F8BC08BC0B
S11309309E46704745070000DD000000F8B5C0463C
S10F0940F8BC08BC9E467047B5000000DF
S113094C40420F000000000000000000F4020020F0
S113095C5C030020C4030020000000000000000021
S113096C0000000000000000000000000000000077
S113097C0000000000000000000000000000000067
S113098C0000000000000000000000000000000057
S113099C0000000000000000000000000000000047
S11309AC0000000000000000000000000000000037
S11309BC0000000000000000000000000000000027
S11309CC0000000000000000000000000000000017
S11309DC0000000000000000000000000000000007
S11309EC00000000000000000000000000000000F7
S11309FC01000000000000000E33CDAB34126DE694
S1130A0CECDE05000B0000000000000000000000FC
S1130A1C00000000000000000000000000000000C6
S1130A2C00000000000000000000000000000000B6
S1130A3C00000000000000000000000000000000A6
S1130A4C0000000000000000000000000000000096
S1070D7C68080020DF
S9030000FC
