S0140000507261637469636130375F312E73726563F2
S1130000A0280020190100001501000015010000BE
S113001000000000000000000000000000000000DC
S113002000000000000000000000000015010000B6
S11300300000000000000000150100001501000090
S11300401501000015010000150100001501000054
S11300501501000015010000150100001501000044
S11300601501000015010000150100001501000034
S11300701501000015010000150100001501000024
S11300801501000015010000150100001501000014
S11300901501000000000000000000001501000030
S11300A015010000150100001501000015010000F4
S11300B00000000010B5064C2378002B07D1054B37
S11300C0002B02D0044800E000BF0123237010BDC0
S11300D04404002000000000D40B0000084B10B5BD
S11300E0002B03D00749084800E000BF0748036815
S11300F0002B00D110BD064B002BFBD09847F9E72D
S11301000000000048040020D40B0000D40B0000C1
S113011000000000FEE70000F8B5234A234B9A4292
S113012009D0224B204A03E01168196004330432D9
S11301301F498B42F8D31F4B02E000221A6004339C
S11301401D4A9342F9D31D4AFF211D4B8B439360F3
S1130150FD3990235B001B4AD1501B4AD3780325F9
S1130160AB4302242343D370D3780C27BB43082624
S11301703343D370154B987B302290432022104395
S11301809873997BB943314399739A7BAA43224369
S11301909A730F4A516880230B4353600D4B984761
S11301A00D4B9847FEE7C046D40B0000000000202A
S11301B044040020440400209C08002000ED00E0DA
S11301C00000000000700041005000410048004160
S11301D000400041E908000089080000014A024B80
S11301E01A60704740420F0000000020034B1B7E42
S11301F0DB07FBD580B2014B18857047000800422D
S113020010B504000A2803D02000034B984710BD02
S11302100D20014B9847F7E7ED010000024A1368EF
S1130220591C1160187070476004002010B5030059
S1130230092807D9084A1279002A01D1572002E077
S1130240372000E03020C018C0B2044B9847012288
S1130250014B5A7110BDC046600400201D0200000D
S113026010B50D4A93681B041B0C9360002204E034
S11302701B1A09498B600132D2B2074B9B68834237
S1130280F6D2054B5B79002B01D1002A02D0100075
S1130290024B984710BDC046600400202D020000A8
S11302A00FB4F0B5C64600B582B008AB10CB0193CD
S11302B0B0E002342978302919D000250B00303BF6
S11302C0DBB2092B29D900265B4B1A000C321A60C9
S11302D000225A71632969D021D8252974D058295C
S11302E024D0002900D1A0E0534F0C3750E0AC1CBF
S11302F069780125E2E7B200D2B2B218D3B25B004A
S1130300DBB2CB18DBB2303BDEB2217801340B0018
S1130310303BDBB2092BEED9D6E70026F7E7732989
S11303204DD01CD975291CD07829DDD158394B42C0
S11303304B41414F3B71019B1A1D01921B68BB60ED
S1130340802040013D4B9846984780204000C0479C
S11303501020C047387A3A4B98470C3718E0642984
S1130360C2D1019B1A1D01921B68334A9360642910
S113037014D03448314FB847FA208000B84764207D
S1130380B8470A20B8472C4F387A2D4B98470C377A
S1130390294B002219680A701F601DE0002BE8DA5F
S11303A05B4293602D20284B9847E2E7019B1A1D7E
S11303B001921878244B98471F4F0C37E8E7019BAC
S11303C01A1D01921F68E3E725201F4B98471A4F17
S11303D00C37DDE7013EF6B2174A1368591C116069
S11303E01B78002B06D0002EF4D103E02020174BFD
S11303F098474646731EDBB29846002E06D0002D61
S1130400F4D03020F3E7114B98472F007D1C387847
S11304100028F8D1651C2078002806D0252800D1B2
S113042047E70A4B98472C00F4E702B004BC904617
S1130430F0BC08BC04B0184760040020610200004E
S11304402D020000102700001D0200000102000020
S1130450154A116A154B0B401362154A116A082399
S11304600B431362134A144B5A80134B5B78DB091A
S1130470FBD1124A124B11681960516859609F21CF
S1130480197391680F4A91628022D2020E490A6060
S11304900E490A60196802220A431A60084BDB6994
S11304A09B07FBD47047C04600080040FFFCFFFFD9
S11304B00004004015400000000C0040880A0000C1
S11304C0000C00420044004108440041184400412B
S11304D0084B1B7EDB07FBD5064B9862054B1B7E46
S11304E05B07FBD5034B986AC0B2024B1B7E9B078C
S11304F0FBD57047000C0042F8B5CE46474680B5A0
S11305000F009046037899468022D202364B1A6037
S11305100024FF2606E0451C0078344B984706006B
S113052001342800BC42F6D34B46482B24D006D9CC
S11305304B46692B44D0772B52D100244DE0402BFD
S11305404ED12B482B4B984700240AE0FF20274B21
S1130550984701000600434618552748254B9847FD
S11305600134022CF2D98022D202244B1A603000CA
S11305700CBC90469946F8BD21481E4B9847002470
S11305800AE0FF20194B984701000600434618551E
S11305901948184B98470134062CF2D9E3E7FF2099
S11305A0124B984701000600434618551248114B58
S11305B098470134012CF2D9FF200C4B9847D2E71D
S11305C00024F7E7FF20094B984701000600434643
S11305D018550948074B98470134022CF2D9C2E751
S11305E00848044B9847BEE714440041D104000076
S11305F0BC0A0000A1020000C40A00001844004123
S1130600C80A0000D00A000010B58022D202054BAF
S11306101A60002403E0FF20034B984701344C2C5C
S1130620F9D910BD18440041D1040000F0B5D646F4
S11306304F4680B583B08246019115001E0080228A
S1130640D202384B1A603848384CA04753461878C1
S1130650374B9946984701003648A04701AFF878D0
S1130660C84701003348A047B878C847010031485B
S1130670A0477878C84701002E48A0473878C84773
S113068001002C48A04753465879C8470700010089
S11306902848A047002F04D1FF20254B9847040089
S11306A011E02548214B984733002A000199504610
S11306B0FFF7BCFFF0E7FF201D4B98470100040043
S11306C01C481A4B9847FE2CF5D11748174B9847EE
S11306D0002419E0194B1B7EDB07FBD5FF22174BC7
S11306E09A62164B1B7E9B07FBD5144B1B7E5B0744
S11306F0FBD5124B9B6A6F1C2B70FF2119400D48D0
S11307000A4B984701343D00B442E3D38022D2021D
S11307100B4B1A600448054B984703B00CBC914638
S11307209A46F0BD14440041E00A0000A102000012
S1130730D1040000C40A0000E40A0000000C0042D6
S11307401844004170B5214C2200062120480C3089
S1130750204B98476378012B04D01F481F4B9847C0
S1130760FFF7F0FF194C2200062119481430194BE9
S113077098476378012B04D0052B02D01848174BF7
S11307809847124B5B79AA2B06D0104B1B79012B8F
S113079002D01448114B9847012410E00B4D0C4C27
S11307A020001C302A0006210A4EB04720002430C5
S11307B02A000621B0476C780B48084B9847002C58
S11307C0ECD10A48054B984770BDC0467804002018
S11307D0880A0000F9040000040B0000A1020000D4
S11307E0200B0000380B0000580B0000680B0000C1
S11307F010B51B4B98471B4A116A1B4B0B401362E5
S11308001A4B19688022D2000A431A604B22995C61
S11308100120014399544A215A5C02435A54153920
S11308205A5C02200243D2B25A545A5C202002433A
S1130830D2B25A540E4A136A31390B4313620D4A29
S11308400D4B5A800D4B0E4A1A60C02292025A6018
S11308500C4A9A811A6802390A431A6010BDC046CC
S1130860DD01000000080040FFFCFFFF00440041E0
S11308700004004014400000000C00400008004246
S11308800400314015FBFFFF70B50C4B98470C4B2F
S113089098470C4B98470C480C4CA0470C4B984776
S11308A00C48A04780239B000B4A00210B480C4DA9
S11308B0A8470C48A047002070BDC046F1070000BF
S11308C05104000009060000740B0000A10200009E
S11308D0450700008C0B0000780400200400002071
S11308E02D060000A40B000070B50D4E0D4D002424
S11308F0AD1BAD1005D0A300F35801349847A542B1
S1130900F9D100F055F9084E084D0024AD1BAD1087
S113091005D0A300F35801349847A542F9D170BD1E
S1130920BC0B0000BC0B0000BC0B0000C40B00009F
S1130930034B10B5002B02D0024800F005F810BD9F
S1130940000000005909000010B501000023002236
S1130950002000F01FF810BD70B5094B094CE41AD3
S1130960A41009D0084AA518AD00ED182B68013C65
S11309709847043D002CF9D100F024F970BDC0461D
S1130980D00B0000D40B0000FFFFFF3F7047C046B0
S11309907047C046F0B54E464546DE465746E0B57C
S11309A0364D83B00600286898460F009146FFF73D
S11309B0EDFF334B1C68A4235B00E058002852D0A1
S11309C043681F2B13DC5A1C0192002E28D1019A74
S11309D002339B0042601F502868FFF7D9FF0020B4
S11309E003B03CBC90469946A246AB46F0BD254BAD
S11309F0002B3DD0C820400000E000BF002837D0C5
S1130A00A42200235200A15843600160A050403248
S1130A10835004328350013301930023002ED6D037
S1130A209A00924682444A46882154466250C4221F
S1130A305200914681444A468739994012688B4650
S1130A400A4394464A466146116084224146520054
S1130A50A150022EBBD102005C468D32FF321168D8
S1130A600C431460B3E720004D30FF30E050A7E79B
S1130A702868FFF78DFF01204042B1E740040020C1
S1130A80AC0B0000000000000C003000002002004D
S1130A900B0001D240000000009500004800000156
S1130AA0AA8700007700000000650000694000008C
S1130AB00077000052000000000100000A523120BB
S1130AC03D200000202578000A5237203D200000F8
S1130AD00A204572726F7220696E20434D440000F3
S1130AE00A0A00000A4572726F7220696E20434D33
S1130AF0443137202E2E2E205265747279696E6728
S1130B00000000000A4572726F7220696E20434D26
S1130B104430202E2E2E205265747279696E67003F
S1130B200A4572726F7220696E20434D4438206208
S1130B3069742030000000000A4572726F722069E7
S1130B406E20566F6C746167652026262050617490
S1130B507465726E000000000A43617264206E6F57
S1130B6074207265616479000A436172642052657D
S1130B70616479000A537461727420436F6D6D75FA
S1130B806E69636174696F6E000000000A5344204B
S1130B904361726420496E697469616C697A656441
S1130BA0000000000A446F6E650000001800002079
S1130BB0F8B5C046F8BC08BC9E4670473109000031
S1130BC0DD000000F8B5C046F8BC08BC9E4670477E
S1070BD0B500000068
S1130BD440420F00510000000001000051000008D1
S1130BE400010000000000000000000004030020D5
S1130BF46C030020D4030020000000000000000067
S1130C0400000000000000000000000000000000DC
S1130C1400000000000000000000000000000000CC
S1130C2400000000000000000000000000000000BC
S1130C3400000000000000000000000000000000AC
S1130C44000000000000000000000000000000009C
S1130C54000000000000000000000000000000008C
S1130C64000000000000000000000000000000007C
S1130C74000000000000000000000000000000006C
S1130C84000000000000000000000000000000005C
S1130C9401000000000000000E33CDAB34126DE6F9
S1130CA4ECDE05000B000000000000000000000062
S1130CB4000000000000000000000000000000002C
S1130CC4000000000000000000000000000000001C
S1130CD4000000000000000000000000000000000C
S1130CE400000000000000000000000000000000FC
S10710147808002034
S9030000FC
